:100000000C9434000C943E000C943E000C943E0082
:100010000C943E000C943E000C943E000C943E0068
:100020000C943E000C943E000C943E000C943E0058
:100030000C943E000C943E000C943E000C943E0048
:100040000C943E000C943E000C943E000C943E0038
:100050000C943E000C943E000C943E000C943E0028
:100060000C943E000C943E0011241FBECFEFD8E04C
:10007000DEBFCDBF0E9447000C9471000C940000BD
:1000800020E1829FC00111248F608BB9089500D0B8
:1000900000D0CDB7DEB780EF8AB98FE08BB91FE013
:1000A00099B1812F192F1F70809581230E944000E4
:1000B00019821A821B821C8289819A81AB81BC8140
:1000C000803A9648A140B10558F789819A81AB8161
:1000D000BC810196A11DB11D89839A83AB83BC832A
:0600E000EBCFF894FFCF06
:00000001FF
