:100000000C9434000C9449000C9449000C94490061
:100010000C9449000C9449000C9449000C9449003C
:100020000C9449000C9449000C9449000C9449002C
:100030000C9449000C9449000C9449000C9449001C
:100040000C9449000C9449000C9449000C9449000C
:100050000C9449000C9449000C9449000C944900FC
:100060000C9449000C94490011241FBECFEFD8E036
:10007000DEBFCDBF11E0A0E0B1E0E4E8F2E002C0F5
:1000800005900D92A830B107D9F70E9413010C9486
:1000900040010C94000084B18C6284B92A9A81E5F5
:1000A0008CBD08958EBD0DB407FEFDCF0895CF938E
:1000B000C62F2A980E9452008C2F0E9452002A9A22
:1000C000CF91089560E08FE00E94570061E08CE0DE
:1000D0000E94570060E089E00E94570067E08BE0D3
:1000E0000E94570068E08AE00C9457000F931F931A
:1000F000CF938C01C0E0F80161918F01CF5F8C2F0D
:100100000E945700C830B9F7CF911F910F91089501
:100110007F928F929F92AF92BF92CF92DF92EF9297
:10012000FF920F931F93CF93DF93CDB7DEB7649702
:100130000FB6F894DEBF0FBECDBF9A01FC018B0154
:10014000AC01485F5F4FCE0101966191DC016D9378
:10015000CD01D8016D918D01DC0117966C93E417E8
:10016000F50799F788EE93E0289F4001299F900CAE
:10017000389F900C1124B12CA12C88E0C82ED12CD2
:1001800010E000E0DE0111967D01712CF7018191F4
:100190007F017394678170E00C2C02C075956795A0
:1001A0000A94E2F7002E01C0880F0A94EAF7682B40
:1001B000872D0E945700F8E07F12E8CF198A1A8A2B
:1001C0001B8A1C8A89899A89AB89BC8988159905FB
:1001D000AA05BB05E0F00F5F1F4F81E0C81AD108E8
:1001E0000830110579F664960FB6F894DEBF0FBE9D
:1001F000CDBFDF91CF911F910F91FF90EF90DF90D6
:10020000CF90BF90AF909F908F907F9008958989F5
:100210009A89AB89BC890196A11DB11D898B9A8BE6
:10022000AB8BBC8BCFCF00D000D0CDB7DEB70E9458
:100230004B000E94620080E091E00E9476001982EB
:100240001A821B821C8289819A81AB81BC81803495
:100250009244AF40B10540F042E350E060E071E00D
:10026000CB010E948800E7CF89819A81AB81BC8154
:100270000196A11DB11D89839A83AB83BC83E3CF13
:04028000F894FFCF20
:080284000066FFFF7E3C18003C
:00000001FF
