:100000000C9434000C9449000C9449000C94490061
:100010000C9449000C9449000C9449000C9449003C
:100020000C9449000C9449000C9449000C9449002C
:100030000C9449000C9449000C9449000C9449001C
:100040000C9449000C9449000C9449000C9449000C
:100050000C9449000C9449000C9449000C944900FC
:100060000C9449000C94490011241FBECFEFD8E036
:10007000DEBFCDBF11E0A0E0B1E0E0E6F1E002C0FC
:1000800005900D92A830B107D9F70E9489000C9411
:10009000AE000C940000229A84B1886284B92A9A36
:1000A00081E58CBD08958EBD0DB407FEFDCF08958A
:1000B000CF93C62F2A980E9453008C2F0E94530082
:1000C0002A9ACF91089560E08FE00E94580061E085
:1000D0008CE00E94580060E089E00E94580067E0D0
:1000E0008BE00E94580068E08AE00C9458000F935F
:1000F0001F93CF938C01C0E0F80161918F01CF5F16
:100100008C2F0E945800C830B9F7CF911F910F91E2
:10011000089500D000D0CDB7DEB70E944B000E94FA
:10012000630080E091E00E94770019821A821B82AE
:100130001C8289819A81AB81BC8180349244AF401A
:10014000B10578F789819A81AB81BC810196A11DA7
:10015000B11D89839A83AB83BC83EBCFF894FFCF27
:080160000066FFFF7E3C180061
:00000001FF
