:100000000C9434000C9451000C9451000C94510049
:100010000C9451000C9451000C9451000C9451001C
:100020000C9451000C9451000C9451000C9451000C
:100030000C9451000C9451000C9451000C945100FC
:100040000C9451000C9451000C9451000C945100EC
:100050000C9451000C9451000C9451000C945100DC
:100060000C9451000C94510011241FBECFEFD8E026
:10007000DEBFCDBF21E0A4E0B1E001C01D92A530FC
:10008000B207E1F711E0A0E0B1E0E4EDF5E002C075
:1000900005900D92A430B107D9F70E9466010C9427
:1000A000E8020C940000E1E8F0E080818160808348
:1000B0000895CF93DF93CDB7DEB728970FB6F894A6
:1000C000DEBF0FBECDBF83E09FEF2FE09BB91D8247
:1000D0001E821F8218864D815E816F817885403A2D
:1000E000564861407105C8F02BB919821A821B82EB
:1000F0001C8249815A816B817C81403A564861401B
:100100007105C0F0815011F728960FB6F894DEBF44
:100110000FBECDBFDF91CF9108954D815E816F817C
:1001200078854F5F5F4F6F4F7F4F4D835E836F8347
:100130007887D1CF49815A816B817C814F5F5F4F36
:100140006F4F7F4F49835A836B837C83D2CFCF938A
:10015000DF93CDB7DEB728970FB6F894DEBF0FBE9A
:10016000CDBF8091040181110BC0809184009091DA
:1001700085000E947A02809104018F5F80930401C0
:1001800089B18F708F30E1F31D821E821F82188625
:100190008D819E81AF81B88580339547A105B105DA
:1001A00000F189B180958F7099B19F709F30E1F710
:1001B00019821A821B821C8249815A816B817C813F
:1001C0004033554761057105C0F0982F91958923FB
:1001D00028960FB6F894DEBF0FBECDBFDF91CF914A
:1001E00008958D819E81AF81B8850196A11DB11DB5
:1001F0008D839E83AF83B887CBCF49815A816B8132
:100200007C814F5F5F4F6F4F7F4F49835A836B8372
:100210007C83D2CFCF93DF93CDB7DEB728970FB6CD
:10022000F894DEBF0FBECDBF2FE02BB9482FFC01E5
:1002300021E030E05FE08E2F841B861748F028967F
:100240000FB6F894DEBF0FBECDBFDF91CF910895FA
:1002500081918C5FD90102C0AA0FBB1F8A95E2F77A
:10026000CD018F608BB91D821E821F8218868D8101
:100270009E81AF81B885803A9648A140B105D0F003
:100280005BB919821A821B821C8289819A81AB8197
:10029000BC81803A9648A140B10568F689819A816F
:1002A000AB81BC810196A11DB11D89839A83AB836B
:1002B000BC83EBCF8D819E81AF81B8850196A11D56
:1002C000B11D8D839E83AF83B887D1CFCDB7DEB705
:1002D00062970FB6F894DEBF0FBECDBF8AB1807FA4
:1002E0008AB98AB1806F8AB98BB18F608BB90E944D
:1002F000530010E0CE0101967C0184E0C82ED12C81
:10030000AA24A394B12C0FEF2FE0722E0E94750245
:10031000F701E10FF11DB6010E94E50180831F5F27
:10032000612FC7010E940A014701882D8E1981178C
:1003300010F11A3059F714E10BB91F86188A198A7F
:100340001A8A8F859889A989BA8980329E44A10525
:10035000B10518F17BB81B861C861D861E868B8511
:100360009C85AD85BE8580329E44A105B10508F10E
:10037000115011F7CBCF0E94A700F40191914F01CA
:10038000950102C0220F331F9A95E2F782171306D8
:1003900061F20E94590010E0B9CF8F859889A98930
:1003A000BA890196A11DB11D8F87988BA98BBA8B35
:1003B000C8CF8B859C85AD85BE850196A11DB11DDD
:1003C0008B879C87AD87BE87CACF97FB072E16F415
:1003D000009407D077FD09D00E94F90107FC05D0F1
:1003E0003EF4909581959F4F0895709561957F4F4C
:1003F0000895AA1BBB1B51E107C0AA1FBB1FA6176C
:10040000B70710F0A61BB70B881F991F5A95A9F7BD
:1004100080959095BC01CD010895CF92DF92EF9227
:10042000FF92CF93DF93CDB7DEB72A970FB6F8943C
:10043000DEBF0FBECDBF89879A87A985BA852D916A
:100440003D914D915C9129833A834B835C83232BAF
:10045000242B252B41F424E239ED4BE557E0298389
:100460003A834B835C8369817A818B819C812DE106
:1004700033EF41E050E00E94850269017A01A7EA6A
:10048000B1E49B01AC010E94A40269837A838B834F
:100490009C83ACEEB4EFA70196010E94B2029B01CF
:1004A000AC0189819A81AB81BC81820F931FA41F0B
:1004B000B51FB7FF03C00197A109B048E985FA85C8
:1004C00080839183A283B3839F772A960FB6F89493
:1004D000DEBF0FBECDBFDF91CF91FF90EF90DF90D9
:1004E000CF9008950E940D02089580E091E00E944F
:1004F0000D020895B0E0A0E0809300019093010107
:10050000A0930201B09303010895052E97FB1EF4FA
:1005100000940E949C0257FD07D00E94B70207FC7E
:1005200003D04EF40C949C02509540953095219543
:100530003F4F4F4F5F4F089590958095709561950F
:100540007F4F8F4F9F4F08950E94D902A59F900D16
:10055000B49F900DA49F800D911D11240895B7FFA5
:100560000C94A4020E94A402821B930B0895A1E2A2
:100570001A2EAA1BBB1BFD010DC0AA1FBB1FEE1F1D
:10058000FF1FA217B307E407F50720F0A21BB30B68
:10059000E40BF50B661F771F881F991F1A9469F7E4
:1005A00060957095809590959B01AC01BD01CF0140
:1005B0000895A29FB001B39FC001A39F700D811D3C
:1005C0001124911DB29F700D811D1124911D08955C
:0405D000F894FFCFCD
:0405D4000100000022
:00000001FF
