:100000000C9434000C9449000C9449000C94490061
:100010000C9449000C9449000C9449000C9449003C
:100020000C9449000C9449000C9449000C9449002C
:100030000C9449000C9449000C9449000C9449001C
:100040000C9449000C9449000C9449000C9449000C
:100050000C9449000C9449000C9449000C944900FC
:100060000C9449000C94490011241FBECFEFD8E036
:10007000DEBFCDBF11E0A0E0B1E0E8EDF1E002C0ED
:1000800005900D92A833B107D9F70E9467000C9430
:10009000EA000C94000080E480937C0087E8809361
:1000A0007A00089590917C00907F8F70982B9093A8
:1000B0007C0080917A00806480937A0080917A003D
:1000C00086FDFCCF80917800909179000895CDB79E
:1000D000DEB728970FB6F894DEBF0FBECDBF8AB14A
:1000E0008FEF8AB93D980E944B008AE0C82ED12C30
:1000F000E12CF12C85E00E94520010E000E0E0913C
:100100000201F0910301E00FF11F80818BB985E0BE
:100110000E9452009C01DC010E94DB006D837E8303
:100120008F839887A70196010E94B900205F384D00
:100130004F4F5F4F19821A821B821C8289819A81DC
:10014000AB81BC8182179307A407B50730F00F5F1E
:100150001F4F0E30110599F6CDCF89819A81AB8161
:10016000BC810196A11DB11D89839A83AB83BC8399
:10017000E5CFA1E21A2EAA1BBB1BFD010DC0AA1FD1
:10018000BB1FEE1FFF1FA217B307E407F50720F000
:10019000A21BB30BE40BF50B661F771F881F991F7B
:1001A0001A9469F760957095809590959B01AC01C4
:1001B000BD01CF010895A29FB001B39FC001A39FCD
:1001C000700D811D1124911DB29F700D811D112490
:0801D000911D0895F894FFCF82
:1001D800300122011A0112010A01AA55AA55AA558D
:1001E800AA55FF7F3F1F0F0703010103070F1F3F9A
:1001F8007FFF0102040810204080402010080402FC
:080208000102040810204080EF
:00000001FF
