:100000000C9434000C943E000C943E000C943E0082
:100010000C943E000C943E000C943E000C943E0068
:100020000C943E000C943E000C943E000C943E0058
:100030000C943E000C943E000C943E000C943E0048
:100040000C943E000C943E000C943E000C943E0038
:100050000C943E000C943E000C943E000C943E0028
:100060000C943E000C943E0011241FBECFEFD8E04C
:10007000DEBFCDBF0E9453000C9407010C9400001A
:10008000882311F05F9A08955F98089583709BB15B
:100090008C5F21E030E001C0220F8A95EAF7892FBA
:1000A00082278BB90895CDB7DEB768970FB6F8945D
:1000B000DEBF0FBECDBF80EF8AB98FE08BB95F9AEC
:1000C0001D8A1E8A1F8A188E8D899E89AF89B88DD8
:1000D000803A9648A140B10508F45DC080E00E94D6
:1000E0004000198A1A8A1B8A1C8A89899A89AB89D5
:1000F000BC89803A9648A140B10508F458C05E9A80
:100100001D861E861F86188A8D859E85AF85B889B7
:10011000803A9648A140B10508F455C05E9819860A
:100120001A861B861C8689859A85AB85BC85803A94
:100130009648A140B10508F452C085E00E944600EF
:100140001D821E821F8218868D819E81AF81B88597
:10015000803A9648A140B10508F44DC085E00E9460
:10016000460019821A821B821C8289819A81AB8186
:10017000BC81803A9648A140B10508F0A0CF8981A2
:100180009A81AB81BC810196A11DB11D89839A839F
:10019000AB83BC83EACF8D899E89AF89B88D0196E8
:1001A000A11DB11D8D8B9E8BAF8BB88F8DCF898993
:1001B0009A89AB89BC890196A11DB11D898B9A8B47
:1001C000AB8BBC8B92CF8D859E85AF85B889019610
:1001D000A11DB11D8D879E87AF87B88B95CF89856F
:1001E0009A85AB85BC850196A11DB11D89879A872B
:1001F000AB87BC8798CF8D819E81AF81B8850196F2
:10020000A11DB11D8D839E83AF83B8879DCFF894C8
:02021000FFCF1E
:00000001FF
